{
  "_format": "hh-sol-artifact-1",
  "contractName": "MessageBoard",
  "sourceName": "contracts/messageBoardContract.sol",
  "abi": [
    {
      "inputs": [],
      "name": "EmptyMessage",
      "type": "error"
    },
    {
      "inputs": [],
      "name": "MessageTooLong",
      "type": "error"
    },
    {
      "anonymous": false,
      "inputs": [
        {
          "indexed": true,
          "internalType": "address",
          "name": "author",
          "type": "address"
        },
        {
          "indexed": false,
          "internalType": "string",
          "name": "content",
          "type": "string"
        },
        {
          "indexed": false,
          "internalType": "uint256",
          "name": "timestamp",
          "type": "uint256"
        },
        {
          "indexed": false,
          "internalType": "uint256",
          "name": "messageIndex",
          "type": "uint256"
        }
      ],
      "name": "MessagePosted",
      "type": "event"
    },
    {
      "inputs": [],
      "name": "getAllMessages",
      "outputs": [
        {
          "components": [
            {
              "internalType": "address",
              "name": "author",
              "type": "address"
            },
            {
              "internalType": "string",
              "name": "content",
              "type": "string"
            },
            {
              "internalType": "uint256",
              "name": "timestamp",
              "type": "uint256"
            }
          ],
          "internalType": "struct MessageBoard.Message[]",
          "name": "",
          "type": "tuple[]"
        }
      ],
      "stateMutability": "view",
      "type": "function"
    },
    {
      "inputs": [
        {
          "internalType": "uint256",
          "name": "_index",
          "type": "uint256"
        }
      ],
      "name": "getMessage",
      "outputs": [
        {
          "internalType": "address",
          "name": "author",
          "type": "address"
        },
        {
          "internalType": "string",
          "name": "content",
          "type": "string"
        },
        {
          "internalType": "uint256",
          "name": "timestamp",
          "type": "uint256"
        }
      ],
      "stateMutability": "view",
      "type": "function"
    },
    {
      "inputs": [],
      "name": "getMessageCount",
      "outputs": [
        {
          "internalType": "uint256",
          "name": "",
          "type": "uint256"
        }
      ],
      "stateMutability": "view",
      "type": "function"
    },
    {
      "inputs": [
        {
          "internalType": "address",
          "name": "_author",
          "type": "address"
        }
      ],
      "name": "getMessagesByAuthor",
      "outputs": [
        {
          "components": [
            {
              "internalType": "address",
              "name": "author",
              "type": "address"
            },
            {
              "internalType": "string",
              "name": "content",
              "type": "string"
            },
            {
              "internalType": "uint256",
              "name": "timestamp",
              "type": "uint256"
            }
          ],
          "internalType": "struct MessageBoard.Message[]",
          "name": "",
          "type": "tuple[]"
        }
      ],
      "stateMutability": "view",
      "type": "function"
    },
    {
      "inputs": [
        {
          "internalType": "uint256",
          "name": "",
          "type": "uint256"
        }
      ],
      "name": "messages",
      "outputs": [
        {
          "internalType": "address",
          "name": "author",
          "type": "address"
        },
        {
          "internalType": "string",
          "name": "content",
          "type": "string"
        },
        {
          "internalType": "uint256",
          "name": "timestamp",
          "type": "uint256"
        }
      ],
      "stateMutability": "view",
      "type": "function"
    },
    {
      "inputs": [
        {
          "internalType": "string",
          "name": "_content",
          "type": "string"
        }
      ],
      "name": "postMessage",
      "outputs": [],
      "stateMutability": "nonpayable",
      "type": "function"
    }
  ],
  "bytecode": "0x608060405234801561001057600080fd5b50610c30806100206000396000f3fe608060405234801561001057600080fd5b50600436106100625760003560e01c80630d80fefd14610067578063319339161461009257806353f5e380146100a35780636630f88f146100b857806386f79edb146100cd578063d909589e146100e0575b600080fd5b61007a61007536600461083c565b6100f3565b6040516100899392919061089b565b60405180910390f35b600054604051908152602001610089565b6100ab6101bb565b60405161008991906108cf565b6100cb6100c636600461095b565b6102cc565b005b61007a6100db36600461083c565b6104a0565b6100ab6100ee3660046109cd565b6105e2565b6000818154811061010357600080fd5b6000918252602090912060039091020180546001820180546001600160a01b03909216935090610132906109fd565b80601f016020809104026020016040519081016040528092919081815260200182805461015e906109fd565b80156101ab5780601f10610180576101008083540402835291602001916101ab565b820191906000526020600020905b81548152906001019060200180831161018e57829003601f168201915b5050505050908060020154905083565b60606000805480602002602001604051908101604052809291908181526020016000905b828210156102c357600084815260209081902060408051606081019091526003850290910180546001600160a01b031682526001810180549293919291840191610228906109fd565b80601f0160208091040260200160405190810160405280929190818152602001828054610254906109fd565b80156102a15780601f10610276576101008083540402835291602001916102a1565b820191906000526020600020905b81548152906001019060200180831161028457829003601f168201915b50505050508152602001600282015481525050815260200190600101906101df565b50505050905090565b600082828080601f0160208091040260200160405190810160405280939291908181526020018383808284376000920182905250845194955093909303925061032b9150505760405163017636cb60e71b815260040160405180910390fd5b6101188151111561034f576040516347e8b47560e11b815260040160405180910390fd5b60006040518060600160405280336001600160a01b0316815260200185858080601f016020809104026020016040519081016040528093929190818152602001838380828437600092018290525093855250504260209384015250805460018101825590805282517f290decd9548b62a8d60345a988386fc84ba6bc95484008f6362f93160ef3e563600390920291820180546001600160a01b0319166001600160a01b039092169190911781559183015192935083927f290decd9548b62a8d60345a988386fc84ba6bc95484008f6362f93160ef3e564909101906104359082610a9c565b50604082015181600201555050336001600160a01b03167f1931de44251ae95a98fb00e407ce504d63813b75d8b1a739796d3756ff85a31885854260016000805490506104829190610b72565b6040516104929493929190610b8b565b60405180910390a250505050565b60008054606090829084106105095760405162461bcd60e51b815260206004820152602560248201527f4d6573736167652077697468207468697320696e64657820646f65736e277420604482015264195e1a5cdd60da1b606482015260840160405180910390fd5b600080858154811061051d5761051d610bcb565b60009182526020909120600390910201805460028201546001830180549394506001600160a01b03909216928290610554906109fd565b80601f0160208091040260200160405190810160405280929190818152602001828054610580906109fd565b80156105cd5780601f106105a2576101008083540402835291602001916105cd565b820191906000526020600020905b8154815290600101906020018083116105b057829003601f168201915b50505050509150935093509350509193909250565b60606000805b60005481101561064e57836001600160a01b03166000828154811061060f5761060f610bcb565b60009182526020909120600390910201546001600160a01b03160361063c578161063881610be1565b9250505b8061064681610be1565b9150506105e8565b5060008167ffffffffffffffff81111561066a5761066a610a37565b6040519080825280602002602001820160405280156106c857816020015b6106b5604051806060016040528060006001600160a01b0316815260200160608152602001600081525090565b8152602001906001900390816106885790505b5090506000805b60005481101561083257856001600160a01b0316600082815481106106f6576106f6610bcb565b60009182526020909120600390910201546001600160a01b031603610820576000818154811061072857610728610bcb565b6000918252602091829020604080516060810190915260039092020180546001600160a01b031682526001810180549293919291840191610768906109fd565b80601f0160208091040260200160405190810160405280929190818152602001828054610794906109fd565b80156107e15780601f106107b6576101008083540402835291602001916107e1565b820191906000526020600020905b8154815290600101906020018083116107c457829003601f168201915b5050505050815260200160028201548152505083838151811061080657610806610bcb565b6020026020010181905250818061081c90610be1565b9250505b8061082a81610be1565b9150506106cf565b5090949350505050565b60006020828403121561084e57600080fd5b5035919050565b6000815180845260005b8181101561087b5760208185018101518683018201520161085f565b506000602082860101526020601f19601f83011685010191505092915050565b6001600160a01b03841681526060602082018190526000906108bf90830185610855565b9050826040830152949350505050565b60006020808301818452808551808352604092508286019150828160051b87010184880160005b8381101561094d57888303603f19018552815180516001600160a01b031684528781015160608986018190529061092f82870182610855565b928901519589019590955250948701949250908601906001016108f6565b509098975050505050505050565b6000806020838503121561096e57600080fd5b823567ffffffffffffffff8082111561098657600080fd5b818501915085601f83011261099a57600080fd5b8135818111156109a957600080fd5b8660208285010111156109bb57600080fd5b60209290920196919550909350505050565b6000602082840312156109df57600080fd5b81356001600160a01b03811681146109f657600080fd5b9392505050565b600181811c90821680610a1157607f821691505b602082108103610a3157634e487b7160e01b600052602260045260246000fd5b50919050565b634e487b7160e01b600052604160045260246000fd5b601f821115610a9757600081815260208120601f850160051c81016020861015610a745750805b601f850160051c820191505b81811015610a9357828155600101610a80565b5050505b505050565b815167ffffffffffffffff811115610ab657610ab6610a37565b610aca81610ac484546109fd565b84610a4d565b602080601f831160018114610aff5760008415610ae75750858301515b600019600386901b1c1916600185901b178555610a93565b600085815260208120601f198616915b82811015610b2e57888601518255948401946001909101908401610b0f565b5085821015610b4c5787850151600019600388901b60f8161c191681555b5050505050600190811b01905550565b634e487b7160e01b600052601160045260246000fd5b81810381811115610b8557610b85610b5c565b92915050565b606081528360608201528385608083013760006080858301015260006080601f19601f870116830101905083602083015282604083015295945050505050565b634e487b7160e01b600052603260045260246000fd5b600060018201610bf357610bf3610b5c565b506001019056fea2646970667358221220499270e980db7198e4ddc58ba6c06c6b9c5c5de9e92dce83db3db8468293756564736f6c63430008130033",
  "linkReferences": {},
  "deployedLinkReferences": {}
}